{
  "address": "0x5FbDB2315678afecb367f032d93F642f64180aa3",
  "abi": [
    {
      "inputs": [],
      "stateMutability": "nonpayable",
      "type": "constructor"
    },
    {
      "inputs": [
        {
          "internalType": "string",
          "name": "name",
          "type": "string"
        },
        {
          "internalType": "uint32",
          "name": "score",
          "type": "uint32"
        }
      ],
      "name": "addEntry",
      "outputs": [],
      "stateMutability": "nonpayable",
      "type": "function"
    },
    {
      "inputs": [],
      "name": "currentEntryIndex",
      "outputs": [
        {
          "internalType": "uint16",
          "name": "",
          "type": "uint16"
        }
      ],
      "stateMutability": "view",
      "type": "function"
    },
    {
      "inputs": [
        {
          "internalType": "uint16",
          "name": "num",
          "type": "uint16"
        }
      ],
      "name": "getTopEntries",
      "outputs": [
        {
          "components": [
            {
              "internalType": "string",
              "name": "name",
              "type": "string"
            },
            {
              "internalType": "uint32",
              "name": "score",
              "type": "uint32"
            }
          ],
          "internalType": "struct CryptoRocket.Entry[]",
          "name": "",
          "type": "tuple[]"
        }
      ],
      "stateMutability": "view",
      "type": "function"
    },
    {
      "inputs": [],
      "name": "owner",
      "outputs": [
        {
          "internalType": "address payable",
          "name": "",
          "type": "address"
        }
      ],
      "stateMutability": "view",
      "type": "function"
    },
    {
      "inputs": [
        {
          "internalType": "uint256",
          "name": "",
          "type": "uint256"
        }
      ],
      "name": "rankings",
      "outputs": [
        {
          "internalType": "string",
          "name": "name",
          "type": "string"
        },
        {
          "internalType": "uint32",
          "name": "score",
          "type": "uint32"
        }
      ],
      "stateMutability": "view",
      "type": "function"
    },
    {
      "inputs": [],
      "name": "transferToOwner",
      "outputs": [],
      "stateMutability": "nonpayable",
      "type": "function"
    },
    {
      "stateMutability": "payable",
      "type": "receive"
    }
  ],
  "bytecode": "0x60a060405234801561001057600080fd5b503373ffffffffffffffffffffffffffffffffffffffff1660808173ffffffffffffffffffffffffffffffffffffffff16815250506000600160006101000a81548161ffff021916908361ffff1602179055506080516111e661008c6000396000818161017801528181610206015261059701526111e66000f3fe6080604052600436106100595760003560e01c80632d90ae94146100655780634258853f1461007c5780638da5cb5b146100b9578063c137bffa146100e4578063d7c2e75b1461010f578063edc15b6b1461013857610060565b3661006057005b600080fd5b34801561007157600080fd5b5061007a610176565b005b34801561008857600080fd5b506100a3600480360381019061009e91906108b2565b61026d565b6040516100b09190610a8d565b60405180910390f35b3480156100c557600080fd5b506100ce610595565b6040516100db9190610af0565b60405180910390f35b3480156100f057600080fd5b506100f96105b9565b6040516101069190610b1a565b60405180910390f35b34801561011b57600080fd5b5061013660048036038101906101319190610c96565b6105cd565b005b34801561014457600080fd5b5061015f600480360381019061015a9190610d28565b610753565b60405161016d929190610dae565b60405180910390f35b7f000000000000000000000000000000000000000000000000000000000000000073ffffffffffffffffffffffffffffffffffffffff163373ffffffffffffffffffffffffffffffffffffffff1614610204576040517f08c379a00000000000000000000000000000000000000000000000000000000081526004016101fb90610e2a565b60405180910390fd5b7f000000000000000000000000000000000000000000000000000000000000000073ffffffffffffffffffffffffffffffffffffffff166108fc479081150290604051600060405180830381858888f1935050505015801561026a573d6000803e3d6000fd5b50565b60606000808054905067ffffffffffffffff81111561028f5761028e610b3f565b5b6040519080825280602002602001820160405280156102bd5781602001602082028036833780820191505090505b50905060006102d58461ffff1660008054905061081f565b63ffffffff1667ffffffffffffffff8111156102f4576102f3610b3f565b5b60405190808252806020026020018201604052801561032d57816020015b61031a610844565b8152602001906001900390816103125790505b50905060005b8461ffff168161ffff16101561058a57600080600090506000805b6000805490508161ffff1610156104305760001515878261ffff168151811061037a57610379610e4a565b5b602002602001015115151480156103d657508163ffffffff1660008261ffff16815481106103ab576103aa610e4a565b5b906000526020600020906002020160010160009054906101000a900463ffffffff1663ffffffff1610155b1561041f5780935060008161ffff16815481106103f6576103f5610e4a565b5b906000526020600020906002020160010160009054906101000a900463ffffffff169150600192505b8061042990610ea8565b905061034e565b508161043e5750505061058a565b60008361ffff168154811061045657610455610e4a565b5b906000526020600020906002020160405180604001604052908160008201805461047f90610f01565b80601f01602080910402602001604051908101604052809291908181526020018280546104ab90610f01565b80156104f85780601f106104cd576101008083540402835291602001916104f8565b820191906000526020600020905b8154815290600101906020018083116104db57829003601f168201915b505050505081526020016001820160009054906101000a900463ffffffff1663ffffffff1663ffffffff1681525050858561ffff168151811061053e5761053d610e4a565b5b60200260200101819052506001868461ffff168151811061056257610561610e4a565b5b602002602001019015159081151581525050838061057f90610ea8565b945050505050610333565b819350505050919050565b7f000000000000000000000000000000000000000000000000000000000000000081565b600160009054906101000a900461ffff1681565b6103e861ffff16600160009054906101000a900461ffff1661ffff161061068e576000600160006101000a81548161ffff021916908361ffff16021790555060405180604001604052808381526020018263ffffffff168152506000808154811061063b5761063a610e4a565b5b9060005260206000209060020201600082015181600001908161065e91906110de565b5060208201518160010160006101000a81548163ffffffff021916908363ffffffff16021790555090505061074f565b600060405180604001604052808481526020018363ffffffff16815250908060018154018082558091505060019003906000526020600020906002020160009091909190915060008201518160000190816106e991906110de565b5060208201518160010160006101000a81548163ffffffff021916908363ffffffff16021790555050506001600081819054906101000a900461ffff168092919061073390610ea8565b91906101000a81548161ffff021916908361ffff160217905550505b5050565b6000818154811061076357600080fd5b906000526020600020906002020160009150905080600001805461078690610f01565b80601f01602080910402602001604051908101604052809291908181526020018280546107b290610f01565b80156107ff5780601f106107d4576101008083540402835291602001916107ff565b820191906000526020600020905b8154815290600101906020018083116107e257829003601f168201915b5050505050908060010160009054906101000a900463ffffffff16905082565b60008163ffffffff168363ffffffff161061083a578161083c565b825b905092915050565b604051806040016040528060608152602001600063ffffffff1681525090565b6000604051905090565b600080fd5b600080fd5b600061ffff82169050919050565b61088f81610878565b811461089a57600080fd5b50565b6000813590506108ac81610886565b92915050565b6000602082840312156108c8576108c761086e565b5b60006108d68482850161089d565b91505092915050565b600081519050919050565b600082825260208201905092915050565b6000819050602082019050919050565b600081519050919050565b600082825260208201905092915050565b60005b8381101561094557808201518184015260208101905061092a565b60008484015250505050565b6000601f19601f8301169050919050565b600061096d8261090b565b6109778185610916565b9350610987818560208601610927565b61099081610951565b840191505092915050565b600063ffffffff82169050919050565b6109b48161099b565b82525050565b600060408301600083015184820360008601526109d78282610962565b91505060208301516109ec60208601826109ab565b508091505092915050565b6000610a0383836109ba565b905092915050565b6000602082019050919050565b6000610a23826108df565b610a2d81856108ea565b935083602082028501610a3f856108fb565b8060005b85811015610a7b5784840389528151610a5c85826109f7565b9450610a6783610a0b565b925060208a01995050600181019050610a43565b50829750879550505050505092915050565b60006020820190508181036000830152610aa78184610a18565b905092915050565b600073ffffffffffffffffffffffffffffffffffffffff82169050919050565b6000610ada82610aaf565b9050919050565b610aea81610acf565b82525050565b6000602082019050610b056000830184610ae1565b92915050565b610b1481610878565b82525050565b6000602082019050610b2f6000830184610b0b565b92915050565b600080fd5b600080fd5b7f4e487b7100000000000000000000000000000000000000000000000000000000600052604160045260246000fd5b610b7782610951565b810181811067ffffffffffffffff82111715610b9657610b95610b3f565b5b80604052505050565b6000610ba9610864565b9050610bb58282610b6e565b919050565b600067ffffffffffffffff821115610bd557610bd4610b3f565b5b610bde82610951565b9050602081019050919050565b82818337600083830152505050565b6000610c0d610c0884610bba565b610b9f565b905082815260208101848484011115610c2957610c28610b3a565b5b610c34848285610beb565b509392505050565b600082601f830112610c5157610c50610b35565b5b8135610c61848260208601610bfa565b91505092915050565b610c738161099b565b8114610c7e57600080fd5b50565b600081359050610c9081610c6a565b92915050565b60008060408385031215610cad57610cac61086e565b5b600083013567ffffffffffffffff811115610ccb57610cca610873565b5b610cd785828601610c3c565b9250506020610ce885828601610c81565b9150509250929050565b6000819050919050565b610d0581610cf2565b8114610d1057600080fd5b50565b600081359050610d2281610cfc565b92915050565b600060208284031215610d3e57610d3d61086e565b5b6000610d4c84828501610d13565b91505092915050565b600082825260208201905092915050565b6000610d718261090b565b610d7b8185610d55565b9350610d8b818560208601610927565b610d9481610951565b840191505092915050565b610da88161099b565b82525050565b60006040820190508181036000830152610dc88185610d66565b9050610dd76020830184610d9f565b9392505050565b7f4e6f74206f776e65720000000000000000000000000000000000000000000000600082015250565b6000610e14600983610d55565b9150610e1f82610dde565b602082019050919050565b60006020820190508181036000830152610e4381610e07565b9050919050565b7f4e487b7100000000000000000000000000000000000000000000000000000000600052603260045260246000fd5b7f4e487b7100000000000000000000000000000000000000000000000000000000600052601160045260246000fd5b6000610eb382610878565b915061ffff8203610ec757610ec6610e79565b5b600182019050919050565b7f4e487b7100000000000000000000000000000000000000000000000000000000600052602260045260246000fd5b60006002820490506001821680610f1957607f821691505b602082108103610f2c57610f2b610ed2565b5b50919050565b60008190508160005260206000209050919050565b60006020601f8301049050919050565b600082821b905092915050565b600060088302610f947fffffffffffffffffffffffffffffffffffffffffffffffffffffffffffffffff82610f57565b610f9e8683610f57565b95508019841693508086168417925050509392505050565b6000819050919050565b6000610fdb610fd6610fd184610cf2565b610fb6565b610cf2565b9050919050565b6000819050919050565b610ff583610fc0565b61100961100182610fe2565b848454610f64565b825550505050565b600090565b61101e611011565b611029818484610fec565b505050565b5b8181101561104d57611042600082611016565b60018101905061102f565b5050565b601f8211156110925761106381610f32565b61106c84610f47565b8101602085101561107b578190505b61108f61108785610f47565b83018261102e565b50505b505050565b600082821c905092915050565b60006110b560001984600802611097565b1980831691505092915050565b60006110ce83836110a4565b9150826002028217905092915050565b6110e78261090b565b67ffffffffffffffff811115611100576110ff610b3f565b5b61110a8254610f01565b611115828285611051565b600060209050601f8311600181146111485760008415611136578287015190505b61114085826110c2565b8655506111a8565b601f19841661115686610f32565b60005b8281101561117e57848901518255600182019150602085019450602081019050611159565b8683101561119b5784890151611197601f8916826110a4565b8355505b6001600288020188555050505b50505050505056fea26469706673582212209a09775082ad8039cb1236bda41ca294fb70dc7b4930d51af9a31d41c7c5ff0064736f6c63430008180033",
  "linkReferences": {},
  "deployedLinkReferences": {}
}